:020000040800F2
:10000000083E002015340008ED070008EF0700083F
:10001000F3070008F7070008FB07000800000000CE
:10002000000000000000000000000000FF070008C2
:100030000108000800000000030800080508000887
:100040002F3400082F3400082F3400082F34000804
:100050002F3400082F3400082F3400082F340008F4
:100060002F3400082F3400082F3400082F340008E4
:100070002F3400082F3400082F3400082F340008D4
:100080002F3400082F3400082F3400082F340008C4
:100090002F3400082F3400082F3400082F340008B4
:1000A0002F3400082F3400082F3400082F340008A4
:1000B0005F070008430A00082F3400082F340008A7
:1000C0002F3400082F3400082F3400082F34000884
:1000D0002F3400082F340008612D0008DD3200089D
:1000E000051000082F3400082F340008DFF80CD06A
:1000F00008F060FE0048004701010008083E0020AB
:1001000090B01020FE4988614FF44010FD494860CE
:100110000020C8604FF4165002F072FF00F08CFE11
:1001200003F01BF900F0E6FE02F0ACFE02F014FF53
:10013000F5A20121042000F0C3FDF7A002F04EFF5C
:10014000F7A20121042000F0BBFD05F015FA08F02C
:100150003CF901F09FFE0CE0F5A20021084600F0FA
:10016000AFFDC82002F0CBFE00F049FDC82002F030
:10017000C6FE0DAA0EA9F2A005F09BFA0028EBD14D
:10018000F0A20121084600F09BFDF1A2012102200E
:1001900000F096FDF2A20121032000F091FD0E98DF
:1001A000820A05230721022000F0A8FD0D98820A8B
:1001B00005230721032000F0A1FD02F0CDFE01F090
:1001C00029FE01F04DFE4FF4E13002F0ECFFE8A211
:1001D0000121042000F074FD00BF00F074FF00282E
:1001E000FBD1E749086001F066F801F0A9F80020AA
:1001F000E449C1F8BC0102F0A7FC00F000FDE2A256
:100200000121032000F05CFDE3A20121042000F0A5
:1002100057FD00F0BAFE02F0D7FC45F2555003F04E
:1002200017FC062003F017FC40F6344003F016FCE0
:1002300003F017FC03F01AFCDB4903C9CDE9040104
:10024000DA4803C8CDE90201D94903C9CDE9000163
:10025000D8480CC8D84802F0B1FDD34803C8CDE94E
:100260000401D24803C8CDE90201D44803C8CDE94E
:100270000001D3480CC8D34802F0A0FDCA4903C905
:10028000CDE90401C94803C8CDE90201CE4903C93B
:10029000CDE90001CD480CC8CD4802F08FFDCD4C12
:1002A00004F10209251D05F1020A2E1D06F1020BBB
:1002B0000C2003F064F9B4F90010884201D0012742
:1002C00000E00027102003F05AF9B9F90010884225
:1002D00001D0012000E00020074357B10C2003F0BB
:1002E0004EF900B22080102003F049F900B2A9F8BD
:1002F0000000142003F043F9B5F90010884201D042
:10030000012700E00027182003F039F9BAF900109E
:10031000884201D0012000E00020074357B114209B
:1003200003F02DF900B22880182003F028F900B25C
:10033000AAF800001C2003F022F9B6F90010884248
:1003400001D0012700E00027202003F018F9BBF9B5
:100350000010884201D0012000E00020074357B17F
:100360001C2003F00CF900B23080202003F007F9C4
:1003700000B2ABF80000F1E103F028F896480288DB
:1003800004230621032000F0B9FC9348428802238D
:100390000B21032000F0B2FC8F48828802230E213B
:1003A000032000F0ABFC8C48C28802230621042005
:1003B00000F0A4FC8848028902230921042000F0EF
:1003C0009DFC8548428902230C21042000F096FC04
:1003D00002F0B8FC01287DD1804800782428FAD1A9
:1003E0007E484078D628F6D17C488178C07800F0E5
:1003F000800001EB400077492839088377490A7962
:10040000C97801F0070102EB0121A1F5C87008F0DD
:100410000FFB7349059008F045F96E49283988604B
:100420006E48407988816D49887908F00AFB4FF061
:100430008241009008F036F9019008F014FB694AF7
:10044000694BCDE9020108F012FACDE9040108F088
:100450001DFB6049283908616049C87908F0F1FA44
:10046000019008F000FB5F4A5F4BCDE9020108F004
:10047000FEF9CDE9040108F009FB56492839486125
:1004800056494A7A097A02EB012008F0D1FA019024
:1004900008F0E9FA4FF03332544BCDE9020108F08D
:1004A000E6F9CDE9040108F0F1FA4A492839C861B2
:1004B0004A49CA7A897A02EB012008F0B9FA45491B
:1004C000283948604549097B0A044449497B02EBC5
:1004D000012100E005E1414A927B881808F0A8FA62
:1004E0003F49059008F0DEF83A49283908603B4951
:1004F000497C0A043949897C02EB0121374A77E0BB
:10050000001002400010014042433236204C6F641C
:10051000494E472E2E2E000072656164790D0A0047
:1005200042433236204C6F6164494E472E2E2E00D6
:100530004661746673204572726F7221000000007C
:10054000300000004641544653204F4B210000002C
:10055000546F74616C3A202020202020204D4200EE
:1005600046726565203A202020202020204D420040
:1005700042433236204C4F4144494E472E2E2E00E6
:10058000A001214200802142446174653A585858C4
:10059000582D58582D58580054696D653A58583A96
:1005A00058583A5858000000200000201800002039
:1005B00030000020280000203005002040000020EE
:1005C000380000205805002050000020480000207E
:1005D00080050020500200208C0000201A05002019
:1005E00000002041EC51B81E85EBF13F3333D33F7F
:1005F000D27C881808F01CFA7049059008F052F86F
:100600006F494862486A08F02EFA02460B46CDE967
:1006100002016C4802F0E7FBCDE9040108F036FA6C
:1006200067498862086808F01EFA02460B46CDE961
:100630000201654802F0D7FBCDE9040108F026FA73
:100640005F49C862486808F00EFA02460B46CDE9D9
:1006500002015E4802F0C7FBCDE9040108F016FA7A
:10066000574908630846806A0C900CAFB81C0B9081
:10067000388881B20C2002F076FF0B98008881B296
:10068000102002F070FF4E48C06A0A900DF1280851
:1006900008F102000990B8F8000081B2142002F0BD
:1006A00062FF0998008881B2182002F05CFF44487C
:1006B000006B089008A807900798801C0690079880
:1006C000008881B21C2002F04EFF0698008881B29B
:1006D000202002F048FF00203D4908803D49087075
:1006E00000BF00F04FFC099008F0B0F900223A4B2F
:1006F000CDE90A0108F0BBF8074608F0C7F9304910
:1007000008623648007830B900F08EFA02F0AEF890
:1007100001203249087072B6002006E04FF0FF3227
:100720002F4941F82020411CC8B20828F6DB2D488B
:10073000006840F040004FF0E021C1F80001084699
:10074000D0F8000140F08050C1F8000162B60020EE
:100750004FF0E021086130BF03F083F90CE62DE98A
:10076000F0410121880704F0EEFC012824D11E4845
:100770000088401C1C490880084600880C2817D1B6
:1007800000F000FC804608F061F906460022124B9A
:1007900008F06DF8044608F079F90949086201F09B
:1007A00031FF01F031FA01F0AFFB00200E49088063
:1007B0000121880704F0D8FCBDE8F0810000C842A0
:1007C0002802002030050020580500208005002068
:1007D0000E000020100000200000E03F0D0000206F
:1007E00080E200E000E100E00A000020704700BF66
:1007F000FEE700BFFEE700BFFEE700BFFEE7704771
:1008000070477047704700000CB5002001900090C1
:100810006C48006840F480306A49086000BF69484D
:10082000006800F4003000900198401C019000988E
:1008300018B90198B0F5A06FF1D16248006800F4D2
:10084000003010B10120009001E0002000900098DD
:10085000012843D15C48006840F010005A49086004
:100860000846006820F0030008600846006840F071
:100870000200086053484068524948600846406892
:1008800048600846406840F4806048600846406818
:1008900020F47C1048600846406840F4E810486046
:1008A0000846006840F08070086000BF4548006856
:1008B00000F000700028F9D04248406820F00300A2
:1008C000404948600846406840F00200486000BF68
:1008D0003C48406800F00C000828F9D10CBD10B568
:1008E000FFF792FF10BD10B53648006840F00100D8
:1008F0003449086008464068344908403149486036
:1009000008460068324908402E49086008460068D9
:1009100020F4802008600846406820F4FE0048600B
:100920004FF41F008860FFF7DAFF4FF0006029499D
:10093000086010BD10B5002100200022214B5B682B
:1009400003F00C0121B1042906D0082928D107E0C1
:10095000214B224C236027E01F4B204C236023E0D7
:10096000184B5B6803F47010164B5B6803F480321D
:10097000022303EB904022B9194B4343174C2360E9
:100980000DE0104B5B6803F4003323B1144B434379
:10099000124C236003E0104B4343104C236003E0F0
:1009A0000D4B0E4C236000BF00BF064B5B68C3F3CA
:1009B00003130C4CE15C094B1B68CB40074C2360D4
:1009C00010BD000000100240002002400000FFF8AF
:1009D000FFFFF6FE08ED00E000127A00580000204C
:1009E00000093D005C0000207FB505460C46012152
:1009F000022003F02EFAADF80450ADF800400020BC
:100A0000ADF80200ADF806006946264803F076FD11
:100A100001221146234804F0E8F81D208DF80C004F
:100A200001208DF80D0002208DF80E0001208DF8B8
:100A30000F0003A802F005FD01211A4804F0BAF8DE
:100A40007FBD10B50121174804F07DFB48B301219B
:100A5000144804F089FB144890F8670088B11248E4
:100A600090F86500401C104981F86500084690F830
:100A70006500082805DB002081F86700012081F867
:100A800068000948D0F8D800401C0749C1F8D800D0
:100A90000846D0F8D800B0F57A7F02DD012081F851
:100AA000DC0010BD00040040A805002008B50121AD
:100AB000082003F0C1F914208DF8030003208DF8FD
:100AC00002004FF48070ADF800006946FE4802F065
:100AD00071FE4FF40070ADF800006946FA4802F06C
:100AE00069FE01221102F84802F015FF01225102AD
:100AF000F54802F010FF08BD10B501225102F2487E
:100B000002F009FF01221102EF4802F004FF002267
:100B10004FF40071EC4802F0FEFE00224FF48071A9
:100B2000E94802F0F8FE10BD10B500224FF4007144
:100B3000E54802F0F0FE01221102E34802F0EBFE6C
:100B400001225102E04802F0E6FE10BD70B50546F4
:100B5000002415E08020204100EA05024FF40071D6
:100B6000D94802F0D8FE01221102D74802F0D3FE84
:100B700000224FF48071D44802F0CDFE601CC4B254
:100B8000082CE7DB01221102CF4802F0C4FE00224C
:100B90004FF48071CC4802F0BEFE70BD10B5044623
:100BA000FFF7AAFF7820FFF7D1FF0020FFF7CEFF65
:100BB0002046FFF7CBFFFFF7B7FF10BD10B5044687
:100BC000FFF79AFF7820FFF7C1FF4020FFF7BEFF35
:100BD0002046FFF7BBFFFFF7A7FF10BD70B5054626
:100BE0000C4645F0B000FFF7D9FF102141EA141080
:100BF000FFF7D4FF04F00F00FFF7D0FF70BD70B512
:100C000000240EE000212046FFF7E8FF002504E065
:100C10000020FFF7D3FF681CC5B2802DF8DB601CF5
:100C2000C4B2082CEEDB70BD70B500240EE00021CC
:100C30002046FFF7D3FF002504E00020FFF7BEFFAA
:100C4000681CC5B2802DF8DB601CC4B2042CEEDB3E
:100C500070BD2DE9F04105460E461746721ED206BC
:100C6000110E6A1E5206100EFFF7B8FF002409E0AD
:100C7000A7F12001954A02EB0111085DFFF79EFFE5
:100C8000601CC4B2082CF3DB721ED206110E6A1E61
:100C9000012303EB4202D0B2FFF7A0FF00240BE0D8
:100CA000A7F12001894A02EB011204F10801505C0E
:100CB000FFF784FF601CC4B2082CF1DBBDE8F081B3
:100CC0002DE9F04107460E461546002407E02A5D4F
:100CD0003019C1B23846FFF7BCFF601CC4B2285DB2
:100CE0000028F4D1BDE8F08110B50246012000E0F3
:100CF00050430B1EA1F10101FAD110BD2DE9F047BF
:100D000080460E4617461D46002415E0281B411E4E
:100D10000A20FFF7E9FFB7FBF0F00A21B0FBF1F280
:100D200001FB120000F130093019C1B24A464046B9
:100D3000FFF78FFF601CC4B2AC42E7DBBDE8F08771
:100D40002DE9F0478146884615461E46002D06DBF4
:100D50002B2241464846FFF77CFF2F4605E02D2217
:100D600041464846FFF775FF6F42002417E0301BED
:100D7000411E0A20FFF7B8FFB7FBF0F00A21B0FBD5
:100D8000F1F201FB120000F1300A08EB0400401CF4
:100D9000C1B252464846FFF75CFF601CC4B2B44281
:100DA000E5DBBDE8F0872DE9F04781460E46904629
:100DB0001F4600241DE0381B411E1020FFF794FF42
:100DC000B8FBF0F000F00F050A2D08DA05F130004D
:100DD000C2B23019C1B24846FFF73BFF07E005F148
:100DE0003700C2B23019C1B24846FFF732FF601C6B
:100DF000C4B2BC42DFDBBDE8F0872DE9F047804696
:100E00000E4617461D46002412E0281B411E0220F4
:100E1000FFF76AFFB7FBF0F000F0010000F13009C6
:100E20003019C1B24A464046FFF713FF601CC4B2F6
:100E3000AC42EADBBDE8F08770B5002406E000258F
:100E400000E06D1CB5F57A7FFBD3641CB4F57A7FA6
:100E5000F5D3FFF72BFEAE20FFF7A0FED520FFF75E
:100E60009DFE8020FFF79AFEA820FFF797FE3F2007
:100E7000FFF794FED320FFF791FE0020FFF78EFED0
:100E80004020FFF78BFEA120FFF788FEC820FFF768
:100E900085FEDA20FFF782FE1220FFF77FFE812019
:100EA000FFF77CFECF20FFF779FED920FFF776FE13
:100EB000F120FFF773FEDB20FFF770FE3020FFF715
:100EC0006DFEA42004E00000000C014078970008AB
:100ED000FFF764FEA620FFF761FE8D20FFF75EFEA0
:100EE0001420FFF75BFEAF20FFF758FEFFF787FEE9
:100EF00070BD00001FB5082002F041FB644909885D
:100F0000884204D0082002F03AFB614908800121A0
:100F1000082002F091FF0121084602F08DFF4820D1
:100F20008DF80F004FF48040ADF80C0003208DF8D1
:100F30000E0003A9574802F03DFC0E21012002F0EB
:100F40004FFD4FF48040019001208DF80A000020F1
:100F50008DF808000C208DF8090001A802F04AFB6A
:100F60004FF4A06002F068FA28208DF800000120FC
:100F70008DF803008DF801008DF80200684602F03C
:100F800060FA1FBD4248008870471FB50121082044
:100F900002F052FF0121084602F04EFF48208DF872
:100FA0000F004FF40050ADF80C0003208DF80E0038
:100FB00003A9384802F0FEFB0D21012002F010FDCC
:100FC0004FF40050019001208DF80A0000208DF8A8
:100FD00008000C208DF8090001A802F00BFB4FF46B
:100FE000A06002F029FA28208DF8000001208DF879
:100FF000030002208DF801008DF80200684602F01F
:1010000020FA1FBD10B54FF4005002F059FB012823
:101010001AD1192001F073FF4FF400511D4802F05E
:101020005CFC68B91C480078401C1B4908700846E5
:101030000078082801D101200870002017490870A5
:101040004FF4005002F04DFB4FF4804002F038FBAB
:1010500001281CD1192001F052FF4FF480410D48A6
:1010600002F03BFC78B90A480088401C0849088017
:1010700008460188082002F076FA0548028808A18F
:10108000084807F0E5FE4FF4804002F02AFB10BD4F
:101090006C000020000C01400C0000200D0000201E
:1010A000256400008806002010B54FF4967001F00A
:1010B00026FF0020F949C1F804014FF48071F74878
:1010C00007F0A9FA10BD10B500240020F44908600B
:1010D000FFF7EAFFF3A002F0DAF840F6B83001F0CB
:1010E0000EFFF2A1ED4807F0ADFAF14908600EE0FD
:1010F000FFF7DAFFEBA002F0CAF84FF4967001F0A8
:10110000FEFEEAA1E54807F09DFAE9490860E848D3
:1011100000680028ECD0E7A002F0B9F84FF4967010
:1011200001F0EDFEE6A1DD4807F08CFAE049086029
:101130000846006830B9FFF7B7FF4FF4967001F02A
:10114000DEFE08E00120D6490860FFF7ADFF4FF44E
:10115000967001F0D4FEDCA002F099F84FF496707E
:1011600001F0CDFED1A1CD4807F06CFAD04908605E
:10117000FFF79AFFCE48006828B1FFF795FF4FF4BC
:10118000967001F0BCFED3A002F081F84FF4967087
:1011900001F0B5FED2A1C14807F054FAC449086075
:1011A000FFF782FF002416E0641CFFF77DFFC9A053
:1011B00002F06DF84FF4967001F0A1FEC8A1B74897
:1011C00007F040FABA490860642C04DD0120B449F4
:1011D0000860002403E0B64800680028E4D000BF9F
:1011E000C2A002F054F84FF4967001F088FEAFA14F
:1011F000AA4807F027FAAE4908600846006828B1F7
:10120000FFF752FF4FF4967001F079FEBAA002F09A
:101210003EF84FF4967001F072FEBAA19F4807F0B5
:1012200011FAA34908600846006828B1FFF73CFF9F
:101230004FF4967001F063FEB4A002F028F84FF46A
:10124000967001F05CFEB4A1944807F0FBF9984950
:101250000860B4A1914807F0F5F9B5490860FFF7B7
:1012600023FF00241CE0641CFFF71EFFA7A002F070
:101270000EF84FF4967001F042FEA7A1874807F0E0
:10128000E1F98B490860A7A1844807F0DBF9A84978
:101290000860642C04DD012081490860002406E018
:1012A0008348006818B9A24800680028DBD000BF56
:1012B0007B48006810BD10B500249EA001F0E7FF38
:1012C0004FF4967001F01BFEFFF7EEFE7EA001F0DA
:1012D000DEFF4FF4967001F012FEFFF7E5FE7DA0F1
:1012E00001F0D5FF4FF4967001F009FE7CA16B4828
:1012F00007F0A8F96E490860FFF7D6FE13E0641CFA
:10130000FFF7D2FE73A001F0C2FF4FF4967001F018
:10131000F6FD73A1614807F095F965490860642CF2
:1013200001DD002403E0624800680028E7D000BF28
:10133000FFF7BAFE83A200210846FFF7C1FC10BDEB
:1013400030B587B0002583A001F0A1FF4FF496705F
:1013500001F0D5FDFFF7A8FE82A001F098FF4FF441
:10136000967001F0CCFDFFF79FFE4FF4807181482D
:1013700007F051F980A089A38CA291A100907D482B
:1013800007F066FD7B4801F082FF4FF4967001F094
:10139000B6FD46A1414807F055F94549086092A2BB
:1013A00001210420FFF78CFC05E040A13B4807F039
:1013B00049F93F4908603E4800680028F5D0FFF72A
:1013C00073FE8BA200210846FFF77AFC8BA001F088
:1013D0005EFF4FF4967001F092FD97A20121042068
:1013E000FFF76EFC96A12D4807F02CF930490860F4
:1013F00097A201210420FFF763FC2AE06D1C1E2048
:1014000001F07DFD8EA1254807F01CF928490860F0
:10141000642D1EDD0821904802F079FA4FF4FA702D
:1014200001F06DFD08218C4802F073FA4FF49670BC
:1014300001F065FD00BF8948006800F4E06088495C
:101440000843001D85490860BFF34F8F00BF00BFF0
:10145000FEE7174800680028D0D0FFF725FE81A2DC
:1014600001210420FFF72CFC17A001F010FF4FF41E
:10147000967001F044FD7EA1084807F0E3F80C499E
:10148000086005E07AA1054807F0DCF80849086023
:10149000074800680028F5D00024F5E0500E002031
:1014A000780000204154690D0A0000004F4B0000F5
:1014B0007000002041542B43494D490D0A000000A3
:1014C0004552524F5200000041542B4347534E3D6A
:1014D000310D0A0041542B43474154543F0D0A003B
:1014E0002B43474154543A203100000041542B51C2
:1014F00042414E443F0D0A0041542B4353510D0AC3
:10150000000000002B4353510000000041542B43C6
:10151000455245473F0D0A002B43455245473A2067
:10152000302C31002B43455245473A20312C3100B5
:101530007400002041542B434750414444523D31F4
:101540000D0A00004661746673204572726F722145
:101550000000000041542B514D54444953433D3049
:101560000D0A000041542B514D54434C4F53453DFF
:10157000300D0A009206002036366431643733336A
:1015800066653837333135366336306436326662F5
:1015900064646466613439330000000035343234E9
:1015A000356438616261656100000000616A313351
:1015B0006F4C446754414730556544690000000052
:1015C00041542B514D544346473D22414C494155CE
:1015D0005448222C302C222573222C222573222CB5
:1015E000222573220D0A00003535353535000000FF
:1015F00037373737373737370000000041542B5122
:101600004D544F50454E3D302C22696F742D6173FF
:101610002D6D7174742E636E2D7368616E676861D1
:10162000692E616C6979756E63732E636F6D222C00
:10163000313838330D0A00003232323232000000C5
:101640002B514D544F50454E3A20302C3000000065
:101650004661746673000000001001400CED00E06C
:101660000000FA0531313131313131210000000003
:101670002B4347534E3A0000FA480168E01D085CCE
:1016800002A90855601CC4B20F2CF5DB00208DF8B0
:101690001700FFF709FD4FF48071F34806F0BBFF18
:1016A000F2A201210420FFF70BFBAFF23410AFF2DE
:1016B0001413AFF20812AFF2F8010090EA4807F0F5
:1016C000C7FBE94801F0E3FD4FF4967001F017FC09
:1016D000EAA1EE4806F0B6FFE2490860ECA201215B
:1016E0000420FFF7EDFA05E0E4A1E84806F0AAFFC0
:1016F000DC490860DB4800680028F5D0FFF7D4FC1F
:10170000E5A201210420FFF7DBFA07B030BD38B5B0
:1017100005460C464FF48071D34806F07CFFAFF2CB
:101720008413AFF27812DE49CF48009407F090FBA3
:10173000CD4801F0ACFD4FF4967001F0E0FBD9A16B
:10174000D24806F07FFFC749086005E0D5A1CF4821
:1017500006F078FFC3490860C24800680028F5D049
:10176000FFF7A2FC38BD38B505460C464FF4807132
:10177000BD4806F050FFAFF2DC13AFF2D012CD49F6
:10178000B948009407F064FBB74801F080FD4FF4BE
:10179000967001F0B4FBC3A1BC4806F053FFB149F9
:1017A000086005E0BFA1B94806F04CFFAD490860EC
:1017B000AC4800680028F5D0FFF776FC38BD38B596
:1017C00005460C464FF48071A74806F024FFAFF29F
:1017D0003423AFF22822B849A348009407F038FB1D
:1017E000A14801F054FD4FF4967001F088FBADA1C3
:1017F000A64806F027FF9B49086005E0A9A1A34879
:1018000006F020FF97490860964800680028F5D048
:10181000FFF74AFC38BD38B505460C464FF48071D9
:10182000914806F0F8FEAFF28C23AFF28022A34974
:101830008D48009407F00CFB8B4801F028FD4FF415
:10184000967001F05CFB97A1904806F0FBFE85497D
:10185000086005E093A18D4806F0F4FE8149086018
:10186000804800680028F5D0FFF71EFC38BD38B569
:1018700005460C464FF480717B4806F0CCFEAFF273
:10188000E423AFF2D8228E497748009407F0E0FABB
:10189000754801F0FCFC4FF4967001F030FB81A11B
:1018A0007A4806F0CFFE6F49086005E07DA17748D1
:1018B00006F0C8FE6B4908606A4800680028F5D049
:1018C000FFF7F2FB38BD38B505460C464FF4807182
:1018D000654806F0A0FEAFF23C33AFF230327949F2
:1018E0006148009407F0B4FA5F4801F0D0FC4FF46F
:1018F000967001F004FB6BA1644806F0A3FE594901
:10190000086005E067A1614806F09CFE5549086043
:10191000544800680028F5D0FFF7C6FB38BD38B53D
:1019200005460C464FF480714F4806F074FEAFF246
:101930009433AFF2883264494B48009407F088FA38
:10194000494801F0A4FC4FF4967001F0D8FA55A173
:101950004E4806F077FE4349086005E051A14B4828
:1019600006F070FE3F4908603E4800680028F5D048
:10197000FFF79AFB38BD38B505460C464FF4807129
:10198000394806F048FEAFF2EC33AFF2E0324F498F
:101990003548009407F05CFA334801F078FC4FF4C6
:1019A000967001F0ACFA3FA1384806F04BFE2D4985
:1019B000086005E03BA1354806F044FE294908606F
:1019C000284800680028F5D0FFF76EFB38BD38B511
:1019D00005460C464FF48071234806F01CFEAFF21A
:1019E0004443AFF238423A491F48009407F030FAB6
:1019F0001D4801F04CFC4FF4967001F080FA29A1CB
:101A0000224806F01FFE1749086005E025A11F487F
:101A100006F018FE13490860124800680028F5D047
:101A2000FFF742FB38BD38B505460C464FF48071D0
:101A30000D4806F0F0FDAFF29C43AFF2904225490D
:101A40000948009407F004FA074801F020FC4FF41D
:101A5000967001F054FA13A10C4806F0F3FD014909
:101A6000086040E070000020920600204661746625
:101A700073204572726F7233210000002B514D5458
:101A8000434F4E4E3A20302C302C3000500E002068
:101A90003535353535352100363636363636210082
:101AA000ACA100082B514D545055423A20302C31F6
:101AB0002C300000589E00085CA10008B0A000086F
:101AC000009F0008589F000800A10008A89E000879
:101AD000AC9D000808A00008AFF23801B14806F03C
:101AE000B1FDB1490860B04800680028F4D0FFF7A4
:101AF000DBFA38BD38B505460C464FF48071AB486B
:101B000006F089FDAFF26C53AFF26052A849A748C6
:101B1000009407F09DF9A54801F0B9FB4FF49670C9
:101B200001F0EDF9AFF284019E4806F08BFD9E496D
:101B3000086006E0AFF294019A4806F083FD9A49E6
:101B40000860994800680028F4D0FFF7ADFA38BD66
:101B500038B505460C464FF48071944806F05BFD9D
:101B6000AFF2C853AFF2BC5292499048009407F0CC
:101B70006FF98E4801F08BFB4FF4967001F0BFF9BE
:101B8000AFF2E001874806F05DFD8749086006E096
:101B9000AFF2F001834806F055FD834908608248A2
:101BA00000680028F4D0FFF77FFA38BD38B5054645
:101BB0000C464FF480717D4806F02DFDAFF2246392
:101BC000AFF218627C497948009407F041F97748F0
:101BD00001F05DFB4FF4967001F091F9AFF23C110A
:101BE000704806F02FFD7049086006E0AFF24C1116
:101BF0006C4806F027FD6C4908606B4800680028B7
:101C0000F4D0FFF751FA38BD70B56C49086806F09A
:101C10002AFF044622460B4669A16B4807F018F9D3
:101C200069496AA0FFF773FD6449486806F01BFF25
:101C3000044622460B4662A1634807F009F962494F
:101C400062A0FFF790FD5D49886806F00CFF04462E
:101C500022460B465AA15C4807F0FAF85A495BA0A5
:101C6000FFF7ADFD5548828959A1574807F0F0F8B4
:101C7000554956A0FFF7CFFD5049086906F0F3FE1D
:101C8000044622460B4653A14F4807F0E1F84E495F
:101C90004EA0FFF7ECFD4949486906F0E4FE044612
:101CA00022460B464BA1484807F0D2F8464947A0C8
:101CB000FFF709FE4148028B45A1434807F0C8F8E9
:101CC000414942A0FFF72BFE3C49C86906F0CBFE14
:101CD000044622460B463AA13B4807F0B9F83A4978
:101CE0003AA0FFF748FE3549086A06F0BCFE0446F4
:101CF00022460B4632A1344807F0AAF8324933A0F5
:101D0000FFF765FE2D49486A06F0ADFE04462246FF
:101D10000B4630A12C4807F09BF82B492BA0FFF76E
:101D200082FE2649886A06F09EFE044622460B463D
:101D300028A1254807F08CF8234924A0FFF7DAFEF4
:101D40001E49C86A06F08FFE044622460B461CA1B7
:101D50001D4807F07DF81C491CA0FFF7F9FE174944
:101D6000086B06F080FE044622460B4614A1164876
:101D700007F06EF8144915A0FFF718FF70BD10B5F5
:101D800016A1084806F05EFC0749086015A1054841
:101D900006F058FC18B919A1024806F053FCFFF7E9
:101DA00083F910BD500E0020700000209206002024
:101DB000B09F00085CA00008049E000828020020D4
:101DC000252E3166000000000D0B002038000000B9
:101DD00025640000252E32660000000070617261EB
:101DE0006D73000022706172616D73223A7B227202
:101DF000656C6179223A317D0000000022706172C9
:101E0000616D73223A7B2272656C6179223A307D72
:101E10000000000008B501210C2002F00DF84FF47D
:101E20008070ADF8000010208DF8030003208DF8BD
:101E300002006946144801F0BDFC4FF4807112485D
:101E400001F065FD4FF40040ADF8000069460F4811
:101E500001F0B0FC4FF400410C4801F058FD08BD02
:101E600008B50121102001F0E7FF8020ADF8000047
:101E700010208DF8030003208DF802006946044805
:101E800001F098FC08BD000000080140000C014072
:101E90000010014010B54D49012208684CA104F022
:101EA000B7FC4C490870C82001F029F8494800786F
:101EB0000D2823D100BF0022114645A005F07DFD6D
:101EC00044490870C82001F01AF8424800780028F8
:101ED000F1D14048007878B901223DA1002004F0FA
:101EE00097FC3C49087039490122086838A104F080
:101EF0008FFC3849087006E000BFFEE735480078DF
:101F000008B100BFFEE710BD00B5B1B0C022324934
:101F100001A806F067FB314804F089FF00BF1222D8
:101F20002FA12E4804F09FFC2A4908704FF4FA6054
:101F300000F0E5FF274800780028F0D12548007818
:101F4000002840D1C82000F0DAFF00BF2348C16854
:101F500004F07DFF1F490870C82000F0D0FF1D4825
:101F600000780028F2D121480078A0B900BF204BAA
:101F7000BE2201A9194804F009FE164908704FF461
:101F8000FA6000F0BCFF134800780028EFD1012070
:101F900016490870087000BF154B962215490F4866
:101FA00004F0F4FD0B4908704FF4FA6000F0A7FF4D
:101FB000084800780028EFD196210E4806F02BFB48
:101FC000064804F034FF31B000BD0000E4010020F9
:101FD000303A00000000002000A200085C0200204F
:101FE000303A2F444154412E63737600080000209C
:101FF000040000208404002010B50446204600F0B0
:1020000091FA10BD10B5382000F0E9FA10BD10B5F6
:10201000102000F0E4FA10BD08B50121042001F001
:102020000BFF1C20ADF8000010208DF803000320EA
:102030008DF802006946FE4801F0BCFB1C21FC48FB
:1020400001F065FC00F095FA0120FA49086008BD2E
:1020500010B50120F7490860FF20FFF7CDFF10BD44
:1020600010B5002400BFFF20FFF7C6FFFF2801D1F5
:10207000002010BD641CF0488442F4D30120F8E72E
:1020800010B50020EB490860FFF7EAFF08B900200F
:1020900010BDFFF7DDFF0120FAE770B505464FF6EA
:1020A000FF7401E0601E84B2FF20FFF7A5FFA84285
:1020B00001D0002CF6D10CB9FF2070BD0020FCE748
:1020C00070B504460D46FE20FFF7E7FF08B101207A
:1020D00070BD04E0FF2000F025FA2070641C281E6B
:1020E000A5F101018DB2F5D1FF20FFF785FFFF209B
:1020F000FFF782FF0020EBE770B506460D46FFF7BD
:10210000AFFF08B1012070BD2846FFF775FFFD2D18
:1021100019D0002404E0305D00F004FA601C84B2A1
:10212000B4F5007FF7DBFF20FFF766FFFF20FFF726
:1021300063FFFF20FFF760FF044604F01F0005283F
:1021400001D00220DFE70020DDE72DE9F041054660
:102150000C4617464FF00008FFF77AFFFFF790FF95
:1021600010B1FF20BDE8F08145F04000FFF744FFCB
:10217000200EFFF741FFC4F30740FFF73DFFC4F314
:102180000720FFF739FFE0B2FFF736FF3846FFF7C9
:1021900033FF0C2D02D1FF20FFF72EFF4FF01F0859
:1021A00000BFFF20FFF728FF064606F0800030B191
:1021B000B8F10000A8F1010101F0FF08F1D13046AB
:1021C000D0E770B50546012200210A20FFF7BDFFC8
:1021D000044624B910212846FFF772FF0446FFF792
:1021E00037FF0CB1012070BD0020FCE770B505463B
:1021F000012200210920FFF7A8FF044624B910217D
:102200002846FFF75DFF0446FFF722FF0CB10120CF
:1022100070BD0020FCE77FB56846FFF7E7FF10B10F
:10222000002004B070BD9DF8000000F0C000402800
:1022300009D19DF809009DF8081000EB0120401C11
:1022400084B2A50220E09DF8050000F00F009DF883
:102250000A1000EBD1109DF8091001F0030100EB0A
:102260004100861C9DF8080080119DF8071000EBC6
:1022700081009DF8061001F0030100EB8120441C51
:10228000A6F1090004FA00F52846CAE7F8B5FFF7F9
:10229000C3FEFFF7B7FE002504E0FF20FFF7ACFE0A
:1022A000681C85B20A2DF8DB142600BF9522002198
:1022B0000846FFF74AFF0446012C04D0301EA6F161
:1022C00001018EB2F2D100205C490870012C4AD184
:1022D00087224FF4D5710820FFF737FF012847D137
:1022E000002506E0FF20FFF787FE0DF80500681CBB
:1022F00085B2042DF6DB9DF80200012879D19DF806
:102300000300AA2875D14FF6FE7600BF01220021F6
:102310003720FFF71AFF012291072920FFF715FF49
:10232000044624B1301EA6F101018EB2EED1002E7A
:102330005FD0012200213A20FFF707FF002858D183
:10234000002506E0FF20FFF757FE0DF80500681C8A
:1023500085B2042DF6DB9DF8000000F0400018B1B6
:1023600006203649087044E004203449087040E0F3
:10237000012200213720FFF7E8FE01220021292059
:10238000FFF7E3FE0446012C17DC02202B490870FE
:102390004FF6FE7600BF012200213720FFF7D5FE61
:1023A000012200212920FFF7D0FE0446BCB1301ED7
:1023B000A6F101018EB2EED111E001201F49087093
:1023C0004FF6FE7600BF012200211046FFF7BDFE4A
:1023D000044624B1301EA6F101018EB2F3D12EB114
:1023E000012251021020FFF7B0FE10B10020134966
:1023F0000870FFF72DFEFFF70AFE1048007808B1BD
:102400000020F8BD0CB12046FBE7AA20F9E72DE932
:10241000F04106460F46154608480078062800D0C9
:102420007F02012D16D101223946112008E000005B
:102430000008014090012142FEFFFF0184000020BE
:10244000FFF783FE0446FCB969023046FFF738FE09
:10245000044619E0012239461220FFF776FE0446B1
:1024600000BF4FF400713046FFF72AFE044606F520
:102470000076681EC0B2051E01D0002CF1D00122EA
:1024800000210C20FFF761FEFFF7E2FD2046BDE8CA
:10249000F0812DE9F04106460F46154620480078A8
:1024A000062800D07F02012D0CD1012239461820C8
:1024B000FFF74BFE04466CBBFE213046FFF71CFEC7
:1024C000044627E016480078012809D0012200219F
:1024D0003720FFF73AFE012229461720FFF735FE85
:1024E000012239461920FFF730FE044694B900BF97
:1024F000FC213046FFF700FE044606F50076681E14
:10250000C0B2051E01D0002CF2D0FD210020FFF743
:10251000F3FD0446FFF79CFD2046BDE8F081000076
:102520008400002070B50546002405E0601CC4B29C
:10253000C82C01DD002070BD02212F4801F0D3FE20
:102540000028F3D029462C4801F07AFE002405E04B
:10255000601CC4B2C82C01DD0020ECE780212648B5
:1025600001F0C1FE0128F3D0234801F06BFEC0B298
:10257000E1E708B5012141F2040001F05DFCE02033
:10258000ADF8000018208DF8030003208DF802003C
:1025900069461A4801F00EF9E021184801F0B7F930
:1025A0000020174908804FF48270488000208880FE
:1025B0000220C8800120088140024881382088819B
:1025C0000020C881072008820B4801F063FD01212B
:1025D000094801F004FEFF20FFF7A4FF08BD10B575
:1025E0000446074884810146034801F053FD012158
:1025F000014801F0F4FD10BD003001400008014029
:102600000E0C0020FEB5002421E154B1012C08D0AD
:10261000022C06D0FE4806F027F805462C21FC4A7D
:102620005155132C11D2DFE804F00A111C27323D5A
:10263000485868788393A3AEBECEDEF0EE00F5482E
:102640000288F5A1F24806F003FCFEE0F14842885A
:10265000F2A1684606F0FCFB6946ED4805F0E6FF8E
:10266000F3E0EC488288EDA1684606F0F1FB69468C
:10267000E74805F0DBFFE8E0E648C288E7A16846E6
:1026800006F0E6FB6946E24805F0D0FFDDE0E148F0
:102690000289E2A1684606F0DBFB6946DC4805F0EA
:1026A000C5FFD2E0DB484289DCA1684606F0D0FBDA
:1026B0006946D74805F0BAFFC7E0D949086806F06F
:1026C000D2F9064632460B46D6A1684606F0C0FB54
:1026D0006946CF4805F0AAFFB7E0D149486806F03F
:1026E000C2F9064632460B46CEA1684606F0B0FB5C
:1026F0006946C74805F09AFFA7E0C949886806F00F
:10270000B2F9064632460B46C6A1684606F0A0FB63
:102710006946BF4805F08AFF97E0C1488289BEA19B
:10272000684606F095FB6946B94805F07FFF8CE0E6
:10273000BB49086906F097F9064632460B46BBA12D
:10274000684606F085FB6946B14805F06FFF7CE0FE
:10275000B349486906F087F9064632460B46B3A1ED
:10276000684606F075FB6946A94805F05FFF6CE016
:10277000AB48028BA8A1684606F06AFB6946A448EC
:1027800005F054FF61E0A649C86906F06CF90646F9
:1027900032460B46A3A1684606F05AFB69469C48A0
:1027A00005F044FF51E09E49086A06F05CF90646D0
:1027B00032460B469BA1684606F04AFB69469448A0
:1027C00005F034FF41E09649486A06F04CF90646A8
:1027D00032460B4695A1684606F03AFB69468C489E
:1027E00005F024FF31E08E49886A06F03CF9064680
:1027F00032460B468DA1684606F02AFB694684489E
:1028000005F014FF21E010E0FFE78549C86A06F0F3
:102810002AF9064632460B4682A1684606F018FBA6
:1028200069467B4805F002FF0FE07D49086B06F022
:102830001AF9064632460B467AA1684606F008FBAE
:102840006946734805F0F2FE00BF00BF641C132CFC
:10285000FFF6DBAE6E4805F007FF05460D206C491C
:1028600048550A216A4A681C1154FEBD70B571486A
:10287000007808287DD2DFE800F07C042F517D9F8E
:10288000C9C86DA201210846FEF71AFA6449086812
:1028900006F0E9F8044622460B4662A1684806F0B5
:1028A000D7FA674A07210120FEF70AFA65A201213B
:1028B0000220FEF705FA5A49486806F0D4F80446A3
:1028C00022460B4657A15E4806F0C2FA5C4A072131
:1028D0000220FEF7F5F923E15CA201210846FEF78C
:1028E000EFF94F49886806F0BEF8044622460B46C9
:1028F0004CA1534806F0ACFA514A07210120FEF7DB
:10290000DFF954A201210220FEF7DAF94448828956
:10291000022307211846FEF7F1F901E14FA2012138
:102920000846FEF7CDF93E49086906F09CF80446D2
:1029300022460B463DA1424806F08AFA404A0A2147
:102940000120FEF7BDF947A201210220FEF7B8F9E8
:102950003349486906F087F8044622460B4633A1FE
:10296000374806F075FA364A0A210220FEF7A8F920
:10297000D6E0D4E03DA201210846FEF7A1F928489F
:10298000028B03230B210120FEF7B8F93AA20121A3
:102990000220FEF795F92249C86906F064F804465A
:1029A00022460B461FA1264806F052FA244A092166
:1029B0000220FEF785F9B3E031A201210846FEF7B7
:1029C0007FF91749086A06F04EF8044622460B467E
:1029D00014A11B4806F03CFA194A09210120FEF710
:1029E0006FF929A201210220FEF76AF90C49486A11
:1029F00006F039F8044622460B460CA1104806F0B2
:102A000027FA0F4A0621022042E071E043E000006D
:102A1000840400208C00002025640000253264001E
:102A200028020020252E316600000000252E326687
:102A3000000000000C0000204C696774683A000038
:102A4000200C00205556493A0000000054656D7076
:102A50003A00000048756D693A00000057696E64DD
:102A60005F733A00477573745F733A0057696E6419
:102A70005F4449543A0000005261696E5F4D3A006C
:102A80005261696E5F463A00507265733A00000009
:102A9000FEF716F944E023A201210846FEF710F9DB
:102AA0002249886A05F0DFFF044622460B46AFF252
:102AB00084011F4806F0CCF91D4A09210120FEF7C8
:102AC000FFF81CA201210220FEF7FAF81749C86A94
:102AD00005F0C9FF044622460B46AFF2B801144880
:102AE00006F0B6F9124A09210220FEF7E9F817E0CC
:102AF00013A201210846FEF7E3F80C49086B05F024
:102B0000B2FF044622460B46AFF2E801084806F041
:102B10009FF9074A09210120FEF7D2F800E000BF23
:102B200000BF70BD4B5F507265733A0028020020F1
:102B3000200C00204B5F4C696774683A000000006D
:102B40004B5F5556493A00001FB50121084601F078
:102B500080F94FF0804002F061F80020ADF80A00E3
:102B6000ADF806004CF24F30ADF8080043F63F00D8
:102B7000ADF8040000208DF80C0001A94FF0804052
:102B800001F0BCFC0121880702F0DAFA01221146AB
:102B9000900702F02AF84FF4A06000F04DFC1C20D2
:102BA0008DF8000001208DF8030002208DF801004F
:102BB00001208DF80200684600F043FC01218807DF
:102BC00001F0F8FF1FBD000000B587B001214804E7
:102BD00001F03FF90121042001F02EF918208DF8B1
:102BE0001B000420ADF8180003208DF81A0006A978
:102BF0006C4800F0DFFD48208DF81B000820ADF880
:102C0000180003208DF81A0006A9664800F0D2FDCE
:102C10004FF4165002900020ADF814000C20ADF8CF
:102C200012000020ADF81000ADF80E00ADF80C0059
:102C300002A95D4802F0DFFA012240F225515A480C
:102C400002F071FB4FF4A06000F0F6FB26208DF837
:102C5000040001208DF807008DF805008DF80600AE
:102C600001A800F0EEFB01214F4802F050FB07B035
:102C700000BD10B5044621464B4802F0B5FB00BF2D
:102C80008021494802F01EFC0028F9D010BD70B523
:102C900005460E46002404E0285DFFF7EAFF601CAD
:102CA00084B2B442F8DB70BD70B50446002504E080
:102CB000605DFFF7DEFF681CC5B2605D0028F7D1DC
:102CC00070BD10B50246012000E050430B1EA1F17B
:102CD0000101FAD110BD2DE9F04106460C46002550
:102CE00012E0601B411E0A20FFF7EBFFB6FBF0F07D
:102CF0000A21B0FBF1F201FB120000F13007384667
:102D0000FFF7B7FF681CC5B2A542EADBBDE8F0815A
:102D100070B504460D46E0B2FFF7ABFF204670BD2C
:102D20000FB400B59BB01DA8019002A8019A1C9990
:102D300006F0A2F80020019002A8FFF7B5FF1BB033
:102D40005DF814FB19480078012804D100201749C8
:102D50000870012070470020FCE715480078704794
:102D600010B540F22551104802F0C2FBC8B10E4820
:102D700002F03EFB0E4908700E480088152810DA54
:102D8000084601780B4802880088401C094B1880CF
:102D90000948815418460088152802D101200349AA
:102DA000087010BD0008014000440040860000206B
:102DB000850000200E0000201A0500202DE9F043B8
:102DC00007AC94E8F003C0E90023C0E90245C0E97C
:102DD0000467C0E906894FF0000CC0F820C0C0F8B5
:102DE00024C0BDE8F0832DE9FF5F824616461F46EA
:102DF000DAE90089DAE904B3DAE902015A46CDE9F1
:102E0000020105F08DFC04460D46DAE906B35A4688
:102E10002046294605F084FC02460B46CDE9020116
:102E20002046294605F095FDCAE9080142464B4671
:102E30003046394605F015FDCDE90001DAE908B361
:102E40005A4605F014FD42464B46CDE9020105F015
:102E500067FCCAE90001DAE908B35A4600200849CC
:102E600005F0FFFC22462B46CDE9020105F0FFFCF0
:102E7000CAE90201DAE9000104B0BDE8F09F0000F0
:102E80000000F03F10B56FF0040000F024FB2E4866
:102E900000682E49B0FBF1F02D4908700846007813
:102EA00000EB4001C1EBC0104FF6FF7101EAC0001A
:102EB0002849088010BD0146254A12784A434FF040
:102EC000E0235A6100229A611A46126942F0010217
:102ED0001A6100BF4FF0E022106900F001021AB140
:102EE00000F48032002AF5D04FF0E022126922F07F
:102EF00001024FF0E0231A6100229A6170470146F7
:102F0000144A12884A434FF0E0235A6100229A6122
:102F10001A46126942F001021A6100BF4FF0E02226
:102F2000106900F001021AB100F48032002AF5D0D5
:102F30004FF0E022126922F001024FF0E0231A6103
:102F400000229A61704700005800002000127A00A9
:102F5000880000208A00002010B54FF4A06000F027
:102F60006BFA10BD10B5044600BF2021E34802F003
:102F7000A9FA0028F9D0E14802F03AFA10BD00BFE2
:102F8000704710B504462146DC4802F02DFA00BF18
:102F90008021DA4802F096FA0028F9D010BD70B509
:102FA00005460E46002404E0285DFFF7EAFF601C9A
:102FB00084B2B442F8DB70BD70B50546002404E06D
:102FC000285DFFF7DEFF601CC4B2285DA04201DD72
:102FD000012000E000200028F2D170BD0FB400B540
:102FE0009BB01DA8019002A8019A1C9905F044FF0E
:102FF0000020019002A8FFF7DFFF1BB05DF814FB73
:1030000010B586B00446012144F2040000F014FF1C
:10301000BA4802F0ADF84FF40070ADF81400032088
:103020008DF8160018208DF8170005A9B44800F097
:10303000C1FB4FF48060ADF8140004208DF8170038
:1030400005A9AF4800F0B6FB01940020ADF80800D8
:10305000ADF80A00ADF80C00ADF810000C20ADF88A
:103060000E0001A9A54802F0C6F825208DF8000041
:1030700003208DF801008DF8020001208DF8030077
:10308000684600F0DEF9012240F225519B4802F02B
:103090004AF90121994802F03AF906B010BD70B51D
:1030A00004460D462946204602F09EF900BF8021C5
:1030B000204602F007FA0028F9D070BD2DE9F04152
:1030C00005460C46260AE7B23146284602F08CF93E
:1030D00000BF8021284602F0F5F90028F9D03946D2
:1030E000284602F081F900BF8021284602F0EAF963
:1030F0000028F9D0BDE8F0812DE9F04107460D46E2
:103100001646002404E0295D7C48FFF7C8FF641CD4
:10311000B442F8DB00BF4021384602F0D3F9002862
:10312000F9D0BDE8F08170B506460C46002500BF19
:10313000615D7248FFF7B3FF681CC5B2605D00288F
:10314000F6D100BF4021304602F0BCF90028F9D08A
:1031500070BD10B5044600BF8021684802F0B2F986
:103160000028F9D02146654802F03EF910BD10B59F
:10317000044600BF8021634802F0A4F90028F9D07A
:103180002146604802F030F910BD10B5044600BF7A
:1031900080215D4802F096F90028F9D021465A486E
:1031A00002F022F910BD10B586B0044601210820B6
:1031B00000F042FE0121880400F04BFE524801F06D
:1031C000D7FF4FF48060ADF8140003208DF816008F
:1031D00018208DF8170005A94C4800F0EBFA4FF4C1
:1031E0000060ADF8140004208DF8170005A94748C9
:1031F00000F0E0FA27208DF8000000208DF8010093
:1032000001208DF802008DF80300684600F019F9DE
:1032100001940020ADF80800ADF80A00ADF80C00EC
:10322000ADF810000C20ADF80E0001A9364801F0F1
:10323000E2FF012240F22551334802F074F80121E7
:10324000314802F064F806B010BD0BE000BF2B4916
:10325000098801F040010029F9D00178274A121DA0
:103260001180401C01780029F0D170470BE000BFAD
:103270002449098801F040010029F9D00178214A48
:10328000121D1180401C01780029F0D170470BE01D
:1032900000BF1D49098801F040010029F9D00178DB
:1032A000194A121D1180401C01780029F0D1704785
:1032B0001749D1F80411FF2904D90021144AC2F892
:1032C00004110AE01249D1F80421D1F80411491C73
:1032D0000F4BC3F8041119468854704710B540F2DB
:1032E0002551094802F004F930B1074802F080F88E
:1032F000C4B22046FFF7DCFF10BD000000380140DB
:10330000000801400044004000480040000C01401B
:10331000500E002010B58CB03D480088A0F26C70B3
:1033200006903B484088401E0590394880880490AC
:103330003748C08803903648008902903448408955
:10334000019001A805F0FAF8A0F5E144204600F04C
:1033500000FE00F031FE0CB010BD10B501210807D1
:1033600000F077FD0121C80600F073FD012000F098
:103370009AFB042000F003F94AF2A551884220D0BC
:10338000012000F0C6FC00BF412000F02AFC01280B
:10339000FAD1000200F0D9FC012000F0DCFC00F0C2
:1033A00014FE00F009FE47F6FF7000F0DFFD00F0AC
:1033B00003FEFFF7AFFF4AF2A551042000F0D3F857
:1033C00003E000F002FE00F0F7FD10BD10B58CB078
:1033D00000F0B6FD00F5E1400B900BA805F0DAFB1C
:1033E00004462C222146684605F0FCF8059800F2B8
:1033F0006C70074908800498401C488003988880B6
:103400000298C88001980881009848810CB010BDCE
:103410008C0000200648804706480047FEE7FEE78C
:10342000FEE7FEE7FEE7FEE7FEE7FEE7FEE7FEE774
:10343000E7080008ED00000831490143314A1160F6
:10344000704770B5002100230F22C47804B32D4CBF
:10345000246804F4E064C4F5E064210AC1F10403C3
:10346000CA40447804FA03F18478144021430901E6
:10347000254C0678A155047804F01F050124AC40C2
:1034800005786D11AD0005F1E025C5F8004109E0B2
:10349000047804F01F050124AC401C4D0678761119
:1034A00045F8264070BD1A4A0A400243154B1B1FBF
:1034B0001A60704739B1134A121D12680243114B4A
:1034C0001B1D1A6006E00F4A121D126882430D4B45
:1034D0001B1D1A607047042808D14FF0E0210969CC
:1034E00041F004014FF0E022116107E04FF0E021CC
:1034F000096921F004014FF0E022116170470000DA
:103500000000FA050CED00E000E400E080E100E0DE
:1035100080FFFF1F10B5012000F0C2FC002000F06A
:10352000BFFC10BD2A49086070472949091F08607F
:103530007047274984310860704701460020254ABA
:1035400010884FF67F4210400843224A108070478F
:10355000014600201F4A10884FF680721040084331
:103560001C4A1080704708B500220092194A2C3A74
:103570000092009A02440092009A116008BD08B5BA
:1035800001460020009013482C3800900098084411
:1035900000900098008808BD0D489C300068C0B2BB
:1035A00070470C480830008840F001000949083194
:1035B000088070470648A0300068C0B270470548D0
:1035C0000830008840F00200024908310880704746
:1035D00004860D422C6C0040002044490860091DFF
:1035E0000860091D0860091D086041483F49143101
:1035F0000860704700213D498279002A3AD00A4686
:10360000126803689A430B461A600A1D1268036821
:103610009A430B1D1A60027911440A6803681A4321
:103620000A60324A0832126803689A432F4B083303
:103630001A601A1D126803689A432C4B0C331A60E7
:103640004279102A0ED11A1F126803681A43274BB9
:1036500008331A601A1D126803681A43234B0C338F
:103660001A600DE02149427911440A6803681A433F
:103670000A6005E0027911440A6803689A430A6007
:1036800070470021016001710C214171002181719D
:1036900070471649103109680143144A103211600D
:1036A000704701460020114A143212680A400AB1DC
:1036B000012000E0002070470C4914310860704779
:1036C000014600200022094B1B6803EA0102074B58
:1036D00014331B680B4013B10AB1012000E0002035
:1036E000704702491431086070470000000401402F
:1036F000FFFF0F0010B50446CC48844208D10121D9
:10370000042000F0B3FB0021042000F0AFFB46E0F2
:10371000C748844208D10121082000F0A7FB0021FE
:10372000082000F0A3FB3AE0C248844208D10121FE
:10373000102000F09BFB0021102000F097FB2EE0F2
:10374000BD48844208D10121202000F08FFB0021D8
:10375000202000F08BFB22E0B848844208D10121F0
:10376000402000F083FB0021402000F07FFB16E0AA
:10377000B348844208D10121802000F077FB00216A
:10378000802000F073FB0AE0AE48844207D101219B
:10379000801500F06BFB0021A01500F067FB10BD49
:1037A00010B50121084600F061FB0021012000F066
:1037B0005DFB10BD2DE9F0410246002500260020EA
:1037C00000230024002791F803C00CF00F0591F8A6
:1037D00003C00CF0100CBCF1000F03D091F802C034
:1037E0004CEA050591F800C0BCF1000F31D0146817
:1037F00000202BE04FF0010C0CFA00F3B1F800C0F0
:103800000CEA03069E4220D183004FF00F0C0CFA05
:1038100003F7BC4305FA03FC4CEA040491F803C027
:10382000BCF1280F06D14FF0010C0CFA00FCC2F8D5
:1038300014C00AE091F803C0BCF1480F05D14FF065
:10384000010C0CFA00FCC2F810C0401C0828D1D3AF
:103850001460B1F800C0BCF1FF0F34DD54680020E3
:103860002EE000F1080C4FF0010808FA0CF3B1F853
:1038700000C00CEA03069E4221D183004FF00F0CDA
:103880000CFA03F7BC4305FA03FC4CEA040491F874
:1038900003C0BCF1280F05D100F1080C08FA0CF8A0
:1038A000C2F8148091F803C0BCF1480F07D100F1B1
:1038B000080C4FF0010808FA0CF8C2F81080401C00
:1038C0000828CED35460BDE8F0814FF6FF71018027
:1038D000022181700421C170704702460020936864
:1038E0000B400BB1012000E00020704701468868C2
:1038F00080B2704702460020D3680B400BB1012014
:1039000000E0002070470146C86880B2704701613E
:103910007047416170470AB1016100E04161704741
:10392000C16070474FF480320A43826181618261D5
:1039300082698269704702460020434B18684FF63F
:103940008073184040EA021008433F4B18607047EC
:103950003E49C8617047F0B50A46002300240021A3
:10396000002500F00046B6F1004F02D1364EF16955
:1039700001E0354E7168C0F3034583B200F4401690
:10398000B6F5401F08D121F070612F4E766826F001
:1039900070662D4F7E6012E000F48016B6F5801F31
:1039A00006D1032606FA05F4A14341F0706106E052
:1039B000460D360103FA06F6B14341F0706122B1BB
:1039C000460D360103FA06F6314300F00046B6F123
:1039D000004F02D11C4EF16101E01B4E7160F0BD41
:1039E00030B500228B071C0F0F2303FA04F2164B8D
:1039F00008338C1053F824309343134C08348D1043
:103A000044F8253023468C1053F824308C07240FBB
:103A100000FA04F423430C4C08348D1044F825308C
:103A200030BD0A49DC3108607047000000080140E1
:103A3000000C01400010014000140140001801403A
:103A4000001C014000200140000001400000204215
:103A50000E49086070470D49486070470B498860FF
:103A600070474AF6AA200949086070474CF6CC40D6
:103A700006490860704701460020044AD2680A409F
:103A80000AB1012000E00020704700000030004033
:103A900010B50121080700F0F6F900214FF0805021
:103AA00000F0F1F910BD2A49086270472849086101
:103AB000704701460020274A106820F0E0000843C4
:103AC000106070472249A0310860704710B5024667
:103AD0000020204B186820F00300104318601E4B94
:103AE0001B6843F004031C4C2360012901D130BF43
:103AF00000E020BF184B1B6823F00403164C236022
:103B000010BD1448006840F00400124908600846DF
:103B1000006840F0020008600F48006840F00400B0
:103B20000D49086000BF00BF30BF7047014600204C
:103B3000084A52680A400AB1012000E0002070479C
:103B40000449096841EA8001024A11607047000097
:103B500000000E420070004010ED00E0DF480068F9
:103B600040F00100DD49086008464068DC49084033
:103B7000DA49486008460068DA490840D7490860D1
:103B80000846006820F4802008600846406820F459
:103B9000FE0048604FF41F0088607047CF490968F5
:103BA00021F48031CD4A11601146096821F4802149
:103BB0001160B0F5803F03D0B0F5802F0ED106E044
:103BC000C649096841F48031C44A116007E0C3491D
:103BD000096841F4A021C14A116000E000BF00BFA4
:103BE000704710B501460022002300204A11012A27
:103BF00002D1BA4C236806E0022A02D1B74C236AEC
:103C000001E0B64C636A01F01F02012494401C409D
:103C10000CB1012000E0002010BD38B5002000905C
:103C20000024002500BF3120FFF7DBFF0546009888
:103C3000401C00900098B0F5A06F01D0002DF2D08C
:103C40003120FFF7CEFF08B1012400E00024204618
:103C500038BD01460020A14A106820F0F80040EA73
:103C6000C10010607047A0490860704702460020FC
:103C70009A4B586820F47C1042EA01031843974B92
:103C80005860704798490866704701460020934A7B
:103C9000506820F003000843506070478F48406828
:103CA00000F00C007047014600208C4A506820F05C
:103CB000F00008435060704701460020874A506872
:103CC00020F4E06008435060704701460020834ABA
:103CD000506820F4605040EAC1005060704729B13C
:103CE0007E4A527A02437D4B5A7204E07B4A527AF2
:103CF00082437A4B5A7270477B49D83108607047CB
:103D000001460020754A506820F440400843506046
:103D100070470021714A20321170704A82F82010D9
:103D2000012802D004280AD104E001216B4A203284
:103D3000117005E00521694A2032117000E000BFD2
:103D400000BF70476949086070476449096A0143C8
:103D5000624A11627047654944390860704730B55E
:103D600000210022002400235C4D6D6805F00C0149
:103D700021B1042905D0082923D105E05C4D056057
:103D800022E05B4D05601FE0544D6D6805F4701234
:103D9000524D6D6805F48034022505EB92421CB942
:103DA000544D554305600BE04C4D6D6805F40035EE
:103DB0001DB1504D5543056002E04D4D5543056022
:103DC00002E04B4D056000BF00BF444D6D6805F03B
:103DD000F0010909484D6B5C0568DD4045603F4DC9
:103DE0006D6805F4E061090A434D6B5C4568DD4090
:103DF00085603A4D6D6805F46051C90A3E4D6B5CB3
:103E00004568DD40C560354D6D6805F44041890B5E
:103E10003A4D6B5CC568B5FBF3F5056130BD29B162
:103E20002E4A526902432D4B5A6104E02B4A5269D3
:103E300082432A4B5A61704729B1284A926902434A
:103E4000264B9A6104E0254A92698243234B9A618A
:103E5000704729B1214AD2690243204BDA6104E05C
:103E60001E4AD26982431D4BDA61704729B11B4A51
:103E7000D2680243194BDA6004E0184AD2688243E0
:103E8000164BDA60704729B1144A12690243134B8A
:103E90001A6104E0114A12698243104B1A6170479B
:103EA00012494039086070470F49C86470470B4990
:103EB000C87170470948406A40F0807007494862FD
:103EC000704701460020054A92680A400AB1012065
:103ED00000E00020704701498872704700100240DE
:103EE0000000FFF8FFFFF6FE00004242800442425D
:103EF00000127A0000093D0098000020A800002070
:103F000029B1504A128802434E4B1A8004E04D4AB0
:103F1000128882434B4B1A8070474A48001D008824
:103F200040F010004749091D088070474548001DB2
:103F300000884FF6EF7108404249091D088070471C
:103F4000002140481C300188001F008841EA0040E1
:103F5000704700B50246FFF7E0FF100C39491831F1
:103F60000880091D0A80FFF7E1FF00BD00B5024689
:103F7000FFF7D3FFC2F30340324908310880091D1F
:103F80000A80FFF7D3FF00BD00B50246FFF7C5FF6B
:103F9000100C2C4920310880091D0A80FFF7C6FF4C
:103FA00000BD00202749103109880907080B254961
:103FB000143109880843704700BF2248001D00885B
:103FC00000F020000028F8D070471E48001D00882F
:103FD0004FF6F77108401B49091D088000BF1948BA
:103FE000001D008800F008000028F8D07047014646
:103FF0000020144A121D12880A400AB1012000E074
:10400000002070470F49091D098881430D4A121D80
:1040100011807047014600200A4A121D12880A408A
:10402000D0B2084A12880A4012B108B1012000E05B
:10403000002070470349091D09888143014A121D68
:10404000118070470028004010B50446BE488442E5
:1040500008D101218014FFF709FF0021A014FFF708
:1040600005FF16E0B948844208D101210014FFF78A
:104070000AFF00212014FFF706FF0AE0B44884423B
:1040800007D10121C013FFF7FEFE0021E013FFF767
:10409000FAFE10BD10B50022028802F441520B88CE
:1040A0004C8823438C882343CC8823430C892343A7
:1040B0004C8923438C892343CC8923431A430280B0
:1040C000838B4FF2FF74234083830B8A038210BDDE
:1040D0002DE9F04F85B005460C464FF00009022748
:1040E0004FF000084FF0010B0026B246A88B4FF2AC
:1040F00040010840A88302202884B5F81C90A068DD
:10410000022801D100BF38E0A08810B94FF0010BA0
:1041100001E04FF0020B8D48854200D100E000BF66
:104120006846FFF71CFEDDF800A0E088B0F5007FD0
:104130000AD14FEA1A2000EB80004000A168B0FBD2
:10414000F1F0401D86B20BE04FEA4B10BAFBF0F0E5
:1041500000EB80004000A168B0FBF1F0401D86B28A
:104160000A20B6FBF0F606F00108A6EB0800C0F343
:104170004F074FF6FF7000EA0828022F01DBFF2FE0
:1041800002DD02274FF00008E08840EA08003843CB
:104190002884A088A18908436188084321880843AE
:1041A00040F4006040EA0909A5F81C9005B0BDE89C
:1041B000F08F0021018041808180C1800181418197
:1041C0008181C181072101827047002101804180E6
:1041D0008180C1800221816000218181704721B1ED
:1041E000028842F04002028004E002884FF6BF736A
:1041F0001A400280704721B1828B42F48062828330
:1042000004E0828B4FF6FF331A408283704730B54B
:10421000002400230C110125A540ABB21AB18588FA
:104220001D43858002E085889D43858030BD1AB19D
:1042300083880B43838002E083888B4383807047AD
:10424000818170470146888970474FF6FF6291422D
:1042500004D0028842F48072028004E002884FF6A3
:10426000FF631A400280704721B1828842F0040245
:10427000828004E082884FF6FB731A408280704788
:1042800002884FF2FF731A40028002880A430280BC
:104290007047018841F480510180704721B1028844
:1042A00042F40052028004E002884DF6FF731A4087
:1042B0000280704702460020012901D0108B00E0E7
:1042C000908A70470146088A7047B1F5804F04D143
:1042D000028842F48042028004E002884BF6FF73B9
:1042E0001A40028070470246002013890B400BB130
:1042F000012000E000207047CA4302817047F0B5FA
:104300000246002000240023002501F00F070126AB
:10431000BE40B4B20B1101269E40B3B2968806EAA5
:1043200003051689264016B10DB1012000E00020DA
:10433000F0BD10B5002201F00F040123A3409AB292
:10434000D343038110BD000000300140003800401D
:10435000003C004010B50446FE48844208D10121CB
:10436000C014FFF783FD0021E014FFF77FFDC4E0D8
:10437000B4F1804F08D101210846FFF784FD0021E8
:104380000120FFF780FDB8E0F348844208D1012105
:104390000220FFF778FD00210220FFF774FDACE05A
:1043A000EE48844208D101210420FFF76CFD002172
:1043B0000420FFF768FDA0E0E948844208D101210C
:1043C0000820FFF760FD00210820FFF75CFD94E066
:1043D000E448844208D101211020FFF754FD002158
:1043E0001020FFF750FD88E0DF48844208D101210A
:1043F0002020FFF748FD00212020FFF744FD7CE04E
:10440000DA48844208D101214014FFF72FFD002132
:104410006014FFF72BFD70E0D548844209D10121DB
:10442000C804FFF723FD00214FF40020FFF71EFD15
:1044300063E0D048844209D101210805FFF716FD49
:1044400000214FF48010FFF711FD56E0CA48844266
:1044500009D101214805FFF709FD00214FF40010A3
:10446000FFF704FD49E0C548844208D101214020FE
:10447000FFF709FD00214020FFF705FD3DE0C048A2
:10448000844208D101218020FFF7FDFC002180201B
:10449000FFF7F9FC31E0BB48844208D101218015C7
:1044A000FFF7F1FC0021A015FFF7EDFC25E0B64871
:1044B000844209D101210804FFF7D8FC00214FF400
:1044C0008030FFF7D3FC18E0B048844209D10121C5
:1044D0004804FFF7CBFC00214FF40030FFF7C6FC87
:1044E0000BE0AB48844208D101218804FFF7BEFCF1
:1044F00000214FF48020FFF7B9FC10BD0022028894
:10450000944B98420ED0994B98420BD0B0F1804F0B
:1045100008D0914B984205D0904B984202D0904BD6
:10452000984204D14FF68F731A404B881A438D4B33
:10453000984207D08C4B984204D04FF6FF431A4064
:10454000CB881A4302808B8883850B880385814B37
:1045500098420BD0854B984208D08B4B984205D09F
:104560008A4B984202D08A4B984201D10B7A03863B
:1045700001238382704770B5002400220023058C3C
:104580004FF6FE7635400584028C8388048B4FF607
:104590008F752C40B51E2C400D882C43751E2A406B
:1045A0000D892A434D882A436A4DA8420BD06F4D8E
:1045B000A84208D0744DA84205D0744DA84202D03C
:1045C000734DA84213D14FF6F7752A404D892A43FF
:1045D0004FF6FB752A408D882A434FF6FF652B4026
:1045E0004FF6FF552B408D892B43CD892B4383807C
:1045F0000483CD888586028470BD70B500240022B6
:104600000023058C4FF6EF7635400584028C8388B5
:10461000048B48F6FF752C404FF6FF452C400D8863
:104620004FF6FF7606EA05252C434FF6DF752A4044
:104630000D8906EA05152A434D8806EA05152A4321
:10464000444DA84202D0494DA8421DD14FF67F7576
:104650002A404D894FF6FF7606EA05152A434FF6A4
:10466000BF752A408D8806EA05152A434FF6FF35A7
:104670002B404FF2FF752B408D8906EA85052B43B1
:10468000CD8906EA85052B4383800483CD88058781
:10469000028470BD70B5002400220023058C4FF603
:1046A000FF6635400584028C8388848B4FF68F75B6
:1046B0002C404FF6FC752C400D882C434FF6FF55CF
:1046C0002A400D894FF6FF7606EA05252A434D88D4
:1046D00006EA05252A431F4DA84202D0234DA842D1
:1046E0001DD14FF2FF752A404D894FF6FF7606EA3D
:1046F00005252A434FF6FF352A408D8806EA052511
:104700002A434EF6FF752B404DF6FF752B408D89E1
:1047100006EA05152B43CD8906EA05152B43838050
:104720008483CD888587028470BD70B50022002304
:104730000024058C4EF6FF7635400584038C848872
:10474000828B48F6FF752A404FF6FF452A400D88B8
:1047500020E00000002C0140000400400008004060
:10476000000C0040001000400014004000340140E4
:10477000004C01400050014000540140001800402E
:10478000001C004000200040004001400044014067
:10479000004801404FF6FF7606EA05252A434DF60C
:1047A000FF752B400D8906EA05352B434D8806EA37
:1047B00005352B43FA4DA84202D0FA4DA84208D144
:1047C0004BF6FF752C408D894FF6FF7606EA85156E
:1047D0002C4384808283CD88A0F84050038470BD30
:1047E000828B4FF2FF331A408283828B4FF6FF7326
:1047F00003EA01231A4382837047F0B50C4615463D
:10480000002200210026078C4EF6FF7C07EA0C07E9
:104810000784828B018C4FF6FF7707EA043640F657
:10482000FF473A404FF6FF7707EA05273A434FF62E
:10483000FF7707EA03373A43D94FB8420ED0D94F32
:10484000B8420BD0B0F1804F08D0D74FB84205D056
:10485000D64FB84202D0D64FB84206D14DF6FF77B8
:10486000394046F48057394305E047F6FF57394051
:1048700044F48057394382830184F0BD828B4FF624
:10488000F3731A408283828B0A4382837047F0B5A8
:104890000C461546002200210026078C4FF6FF6CBF
:1048A00007EA0C070784828B018C4FF6FF7707EA33
:1048B00004264FF60C773A404FF6FF7707EA0317C6
:1048C0002F433A43B64FB8420ED0B64FB8420BD042
:1048D000B0F1804F08D0B44FB84205D0B34FB842C2
:1048E00002D0B34FB84206D14FF6FF57394046F4D5
:1048F0008077394305E04FF2FF57394044F4807721
:10490000394382830184F0BD028B4FF2FF331A409A
:104910000283028B4FF6FF7303EA01231A430283DB
:104920007047F0B50C461546002200210026078C82
:104930004FF6EF7C07EA0C070784028B018C4FF6D9
:10494000FF7707EA041640F6FF473A404FF6FF7735
:1049500007EA03373A434FF6FF7707EA05273A435A
:104960008F4FB8420ED08F4FB8420BD0B0F1804F6E
:1049700008D08D4FB84205D08C4FB84202D08C4F32
:10498000B84206D14FF6DF77394046F01007394379
:1049900005E04FF65F77394044F010073943028352
:1049A0000184F0BD028B4FF6F3731A400283028B31
:1049B0000A4302837047F0B50C46154600220021D9
:1049C000068C4FF6FE773E400684028B018C4FF634
:1049D0000C7632407E1C06EA03162E433243704E9C
:1049E000B0420ED06F4EB0420BD0B0F1804F08D025
:1049F0006D4EB04205D06D4EB04202D06C4EB0420A
:104A000006D14FF6FD76314044F00106314305E012
:104A10004FF6F576314044F00106314302830184BC
:104A2000F0BD70B505460C465D4885420ED05D4828
:104A300085420BD0B5F1804F08D05B48854205D048
:104A40005A48854202D05A48854200D100E000BF52
:104A5000208850B92389A28861882846FFF7ABFFD8
:104A6000E1882846FFF79EFF25E0208804280AD128
:104A70002389A28861882846FFF753FFE1882846EA
:104A8000FFF742FF17E0208808280AD12389A2886F
:104A900061882846FFF7FBFEE1882846FFF7EEFE17
:104AA00009E02389A28861882846FFF7A6FEE188ED
:104AB0002846FFF795FE70BD2DE9F04105460C46EE
:104AC00000260127608808B9022600E00026A08899
:104AD000012801D1022700E001272088A0B92389FD
:104AE000A28861882846FFF766FFE1882846FFF71D
:104AF00059FF23893A4631462846FFF712FFE188DD
:104B00002846FFF701FF13E02389A2886188284621
:104B1000FFF707FFE1882846FFF7F6FE23893A46AC
:104B200031462846FFF747FFE1882846FFF73AFF5E
:104B3000BDE8F0810A884B881A438B881A43CB88DA
:104B40001A430B891A434B891A438B891A43A0F8DD
:104B5000442070474FF6FF71818000210180C180A1
:104B60004180017270470021018041808180C180B5
:104B7000018141818181C181704700210180418093
:104B8000012181800021C1800181704700210180C5
:104B900041808180C1800181418181817047000015
:104BA000002C014000340140000400400008004097
:104BB000000C004021B1028842F00102028004E0B2
:104BC00002884FF6FE731A400280704731B1B0F888
:104BD000442042F40042A0F8442005E0B0F844200C
:104BE000C2F30E02A0F8442070471AB183890B4328
:104BF000838102E083898B43838170478182704780
:104C000041EA0203A0F8483070471AB183890B4388
:104C1000838102E083898B438381704701894FF64A
:104C2000F8721140018170470A46002101894FF650
:104C30008F73194011430181704730B504460D460A
:104C400029462046FFF7F0FF208940F00700208129
:104C500030BD2DE9F04104460D4616461F46602D35
:104C600006D13B46012231462046FFF75AFE05E0B9
:104C70003B46012231462046FFF79DFE294620464D
:104C8000FFF7D2FF208940F007002081BDE8F081C6
:104C900030B50C4600210189C9B24FF6FF7505EA0F
:104CA0000325154325432943018130BD2DE9F041FA
:104CB00005460E4617469846002443463A46314676
:104CC0002846FFF7E5FF2C894FF6F870044044F0C2
:104CD00007044FF68F70044044F070042C81BDE847
:104CE000F081F0B504460D4616461F463B46324657
:104CF00029462046FFF7CCFF208940F480402081E0
:104D0000F0BD0185828270470A46002101884FF676
:104D10008F731940114301807047F0B50C4615465A
:104D20001E460021002200230189028B038C4FF6CE
:104D3000F877394021434FF6FC473A4040F20117DB
:104D40003A434FF6DD773B404FF6FF7707EA061709
:104D50002F433B43018102830384F0BD0A460021B7
:104D6000018B4FF68F7319401143018370470A4638
:104D70000021018B48F6FF7319404FF6FF7303EAD9
:104D800002231943018370470A460021818B4FF6A5
:104D90008F7319401143818370470A460021818B2C
:104DA00048F6FF7319404FF6FF7303EA02231943D5
:104DB0008183704721B1028842F08002028004E0C2
:104DC00002884FF67F731A400280704721B18288B3
:104DD00042F00402828004E082884FF6FB731A409E
:104DE0008280704721B1828842F00802828004E00C
:104DF00082884FF6F7731A408280704721B182880B
:104E000042F00102828004E082884FF6FE731A406D
:104E1000828070470A460021018B4FF6F7731940D4
:104E20001143018370470A460021018B4FF2FF7343
:104E300019404FF6FF7303EA0223194301837047B9
:104E40000A460021818B4FF6F77319401143818385
:104E500070470A460021818B4FF2FF7319404FF6CD
:104E6000FF7303EA02231943818370470A46002136
:104E7000018B4FF6FB7319401143018370470A46BB
:104E80000021018B4FF6FF3319404FF6FF7303EA01
:104E900002231943018370470A460021818B4FF694
:104EA000FB7319401143818370470A460021818BAF
:104EB0004FF6FF3319404FF6FF7303EA02231943FD
:104EC000818370470A460021018B4FF67F7319409A
:104ED0001143018370470A460021018BC1F30E0183
:104EE0004FF6FF7303EA02231943018370470A4612
:104EF0000021818B4FF67F731940114381837047E6
:104F00000A460021818BC1F30E014FF6FF7303EABD
:104F100002231943818370470A460021018C4FF612
:104F2000FD7319401143018470470A460021018C2A
:104F30004FF6F77319401143018470470A46002168
:104F4000018C4FF6DF7319404FF6FF7303EA02132B
:104F50001943018470470A460021018C4FF67F7384
:104F600019404FF6FF7303EA021319430184704797
:104F70000A460021018C4FF6FF5319404FF6FF738C
:104F800003EA02231943018470470A460021018C79
:104F90004FF2FF7319404FF6FF7303EA02231943E0
:104FA000018470470A460021018C4DF6FF731940B9
:104FB0004FF6FF7303EA023319430184704730B59B
:104FC000002301248C40A3B2048C9C430484048CF1
:104FD00002FA01F5ADB22C43048430BD30B5002394
:104FE00004248C40A3B2048C9C430484048C02FAF5
:104FF00001F5ADB22C43048430BD70B503460020EA
:1050000000241846183001258D40ACB21D8CA543F4
:105010001D8409B1082909D100EB6100056825F05C
:10502000700505600568154305600EE00D1FC5F3AA
:105030004E052844056825F4E045056005684FF6EF
:10504000FF7606EA02263543056070BD21B102886D
:1050500042F00202028004E002884FF6FD731A401B
:105060000280704721B1028842F00402028004E00D
:1050700002884FF6FB731A400280704721B1828884
:1050800042F08002828004E082884FF67F731A40EB
:105090008280704702884FF6F7731A4002800288B8
:1050A0000A430280704782884FF68F731A408280CD
:1050B00082880A438280704702894FF6F8731A404B
:1050C000028102890A430281704702894FF67F7389
:1050D0001A40028102890A43028170478184704725
:1050E0008185704781867047018770478187704747
:1050F000A0F84010704702884FF6FF431A40028024
:1051000002880A43028070470146888E7047014634
:10511000088F70470146888F70470146B1F84000FC
:1051200070470146888C70470146088D70470246DB
:105130000020138A0B400BB1012000E000207047D3
:10514000CA430282704730B5024600200023002483
:10515000158A05EA0103958905EA010413B10CB12A
:10516000012000E0002030BDCA43028270470000E9
:1051700010B50446FB48844209D101218803FEF79B
:1051800075FE00214FF48040FEF770FE32E0F648D5
:10519000844209D101214804FEF775FE00214FF435
:1051A0000030FEF770FE25E0F048844209D101216D
:1051B0008804FEF768FE00214FF48020FEF763FEAE
:1051C00018E0EB48844209D10121C804FEF75BFED8
:1051D00000214FF40020FEF756FE0BE0E548844224
:1051E00008D101210805FEF74EFE00214FF4801082
:1051F000FEF749FE10BD2DE9F04786B005460E4684
:105200000024A24600BFA1460027B08900B100BF1C
:105210002F462C8A4CF6FF700440F08804432C8201
:10522000AC894EF6F3100440B08831890843718987
:1052300008430443AC81AC8A4FF6FF400440B08978
:105240000443AC8201A8FEF78AFDC648874202D11A
:10525000DDF810A001E0DDF80CA0A88900F4004002
:1052600040B10AEBCA0000EB0A1031684900B0FBFC
:10527000F1F807E00AEBCA0000EB0A103168890078
:10528000B0FBF1F86420B8FBF0F0040120096421C0
:1052900001FB1089A88900F4004040B1322000EBE6
:1052A000C900B0FBF1F000F00700044308E0322031
:1052B00000EB09106421B0FBF1F000F00F00044393
:1052C0002C8106B0BDE8F0874FF416510160002133
:1052D0008180C18001810C21418100218181704741
:1052E00010B502460020108A4FF2FF0318400B88C9
:1052F0004C8823438C882343CC8823431843108253
:1053000010BD0021018041808180C180704721B1A2
:10531000828942F40052828104E082894DF6FF7353
:105320001A4082817047F0B503460024002600250C
:10533000002040F66A17B94200D100BF1846C1F3F9
:10534000421401F01F06012707FA06F5012C01D1CE
:105350000C3004E0022C01D1103000E014301AB1FE
:1053600007682F43076002E00768AF430760F0BD9E
:105370001AB1838A0B43838202E0838A8B43838240
:105380007047028A4FF6F0731A400282028A0A437B
:105390000282704782894FF2FF731A4082818289AC
:1053A0000A438281704721B1828942F002028281E0
:1053B00004E082894FF6FD731A4082817047028AA9
:1053C0004FF6DF731A400282028A0A430282704754
:1053D00021B1028A42F48042028204E0028A4BF642
:1053E000FF731A4002827047C1F30802828070473F
:1053F00001468888C0F308007047818941F00101A7
:1054000081817047028BD2B20283028B42EA012271
:1054100002837047028B02F47F420283028B0A43AD
:105420000283704721B1828A42F02002828204E026
:10543000828A4FF6DF731A408282704721B1828AD6
:1054400042F01002828204E0828A4FF6EF731A4023
:105450008282704721B1828A42F00802828204E08F
:10546000828A4FF6F7731A408282704721B182898F
:1054700042F40042828103E08289C2F30E028281FB
:10548000704721B1828A42F40062828204E0828AFB
:105490004FF2FF731A4082827047828A4FF6FB7385
:1054A0001A408282828A0A438282704721B1828AAC
:1054B00042F00202828204E0828A4FF6FD731A40B3
:1054C0008282704702460020B1F5007F00D100BF04
:1054D00013880B400BB1012000E00020704701F45D
:1054E0000072B2F5007F00D100BFCA43028070474E
:1054F00070B50246002400230025002040F66A16FD
:10550000B14200D100BFC1F3421501F01F030126D3
:1055100006FA03F3012D02D19689334006E0022DED
:1055200002D1168A334001E0968A33400C120126DC
:1055300006FA04F41688344013B10CB1012000E0DF
:10554000002070BD10B50022002340F66A14A1426D
:1055500000D100BF0A1201249440A3B2DC430480AE
:1055600010BD0000003801400044004000480040E9
:10557000004C00400050004010B54FF40C7002F099
:10558000B3FF5E4908604FF40C7002F0ADFF5B4959
:1055900048604FF40A7002F0A7FF594908604FF4C1
:1055A0000A7002F0A1FF574908604FF4007002F042
:1055B0009BFF554908605148006868B14F484068F2
:1055C00050B14F48006838B14E48006820B10846D5
:1055D000006808B1002010BD0120FCE70146412908
:1055E00001DA08467047612903DBA1F12000C0B24F
:1055F000F8E70846F6E72DE9FC41054600270024B8
:1056000005E0601CC4B2287800B902E06D1CFA2CD9
:10561000F7DB00BFFA2C02D1FF20BDE8FC8100249B
:1056200008E06D1E28782E2802D16D1C2F4603E05D
:10563000601CC4B2052CF4DB00BF3946684603F099
:1056400028F8002407E01DF80400FFF7C7FF0DF855
:105650000400601CC4B2042CF5DB002425E0002605
:105660001EE004EB840000EBC400284901EB80003D
:1056700050F82600007800B914E004EB840101EB37
:10568000C401224A02EB810151F82600694602F06A
:10569000F2FF18B946EA0410C0B2BEE7701CC6B2E9
:1056A0000D2EDEDB00BF601CC4B2062CD7DBFF2052
:1056B000B3E72DE9FC4707460C461546002000904D
:1056C0008046814601AA6946384601F093FD0646A8
:1056D0008EB901984069801E0199897800FB01F913
:1056E00001988078009900FB01F84FEA590020608A
:1056F0004FEA580028603046BDE8FC87E4010020EE
:10570000EC010020F0010020FC010020AC00002092
:1057100070B50446002584B9FCF7B8FD054664263B
:1057200000BF701E061EFCD135B1FCF76BFCFF20DC
:10573000FCF762FCFCF76BFC01E0012500BF00BF39
:105740000DB1012070BD0020FCE70146002070472C
:105750002DE9F04105460E4617461C464FF000085D
:1057600014B90420BDE8F08185B9E2B2394630466B
:10577000FCF74DFE8046B8F1000F06D0FCF742FC66
:10578000FF20FCF739FCFCF742FC02E04FF0010877
:1057900000BF00BFB8F1000F01D10020E2E70120F7
:1057A000E0E72DE9F04105460E4617461C464FF04E
:1057B000000814B90420BDE8F08135B9E2B23946D9
:1057C0003046FCF766FE804602E04FF0010800BF5D
:1057D00000BFB8F1000F01D10020ECE70120EAE79B
:1057E0002DE9F04106460F4615462EBB37B1012F75
:1057F0001AD0022F0FD0032F1BD111E00020264911
:105800000860FCF72DFC08B9002400E00124012009
:10581000214908600FE04FF40070288000240AE05E
:1058200008202880002406E0FCF7F5FC286000240E
:1058300001E0042400BF1DE0012E1AD137B1012F71
:105840000FD0022F04D0032F10D106E000240FE068
:105850004FF40070288000240AE0082028800024EB
:1058600006E00E4800882860002401E0042400BF00
:1058700000E001242046BDE8F0810020704710B50B
:105880000446204602F030FE10BD10B50446204606
:1058900002F01EFE10BD0000900121420002002017
:1058A00070B503460C4603E014F8015B03F8015B96
:1058B000151EA2F10102F7D170BD30B5034601E01B
:1058C00003F8011B141EA2F10102F9D130BDF0B59D
:1058D00003461C460D46002000BF161EA2F1010221
:1058E00007D014F8017B15F801CBA7EB0C06301E8E
:1058F000F3D0F0BD024600E0521C107810B11078D1
:105900008842F9D11078704770B504462079F8B113
:10591000E56A607801232A4604F13001FFF741FF70
:1059200008B1012070BD00202071206A281AA169E9
:1059300088420DD2E67809E0A06905446078012329
:105940002A4604F13001FFF72CFF761E022EF3D217
:105950000020E7E770B504460D46E06AA84210D083
:105960002046FFF7D1FF08B1012070BD6078012308
:105970002A4604F13001FFF7EBFE08B10120F4E7FD
:10598000E5620020F1E770B504462046FFF7BCFF52
:105990000546002D59D1207803284FD16079012880
:1059A0004CD14202002104F13000FFF786FF55215F
:1059B00084F82E12AA2184F82F12522084F8300085
:1059C00052213120015561213220015541213320DE
:1059D0000155722184F8141284F81512412184F8BB
:1059E0001612612184F81712217C84F81812208A7B
:1059F000010A84F819122069010C84F81A1220692E
:105A0000010E84F81B12217B84F81C12A089010A64
:105A100084F81D12E068010C84F81E12E068010E83
:105A200084F81F12E069401CE0626078012304F1F1
:105A30003001E26AFFF7B5FE002060716078002255
:105A40001146FFF7CDFE00B10125284670BD024684
:105A5000891E5069801E884201D8002070479378C3
:105A6000906A01FB0300F9E72DE9F04105460C4679
:105A7000022C02D36869A04202D80120BDE8F0815F
:105A80002878012804D002282CD003285AD13DE0E0
:105A9000274607EB5707286A00EB57212846FFF7F0
:105AA00059FF00B150E0C7F3080105F1300010F8CC
:105AB00001807F1C286A00EB57212846FFF74AFF28
:105AC00000B141E0C7F3080105F13000405C48EA4D
:105AD000002804F0010010B14FEA1810CEE7C8F317
